:0200000480007A
:100000009711000093810192138101C11385018131
:10001000938501811386018163FCC500832205005D
:1000200023A055001305450093854500E3E8C5FE70
:1000300013850181938501816378B5002320050034
:1000400013054500E36CB5FEEF000006EF008002EB
:080050006F0000006780000052
:10005800130700006F00800013071700B7574C0004
:100068009387F7B3E3FAE7FE67800000130101FF07
:1000780023261100B70705101307F00023A4E70093
:100088001307500023A2E70037070510832747000E
:1000980093C7F7002322F700EFF09FFB6FF0DFFE16
:1000A800130101FF2324810023229100138401817D
:1000B80093840181B38484402320210123261100E5
:1000C80093D4244013090000631C9902138401810E
:1000D80093840181B3848440EFF05FF793D4244084
:1000E80013090000631899028320C10003248100CA
:1000F80083244100032901001301010167800000E6
:10010800832704001309190013044400E78007003B
:100118006FF09FFB832704001309190013044400A0
:08012800E78007006FF01FFCE7
:040000058000000077
:00000001FF
