:0200000480007A
:1000000097C10200938181391381010F1785020086
:10001000130505B197850200938585B01386818805
:1000200063FCC5008322050023A05500130545008D
:1000300093854500E3E8C5FE13858188938501CF4C
:100040006378B5002320050013054500E36CB5FE79
:10005000EFD0D073EFD040276F0000006780000022
:10006000130101FE232C81001307050013840500F2
:1000700013050700930504002326C100232E110059
:10008000EF50514C0326C10013080500938805006A
:10009000630E0602135444011374F47F9307B006F1
:1000A000B38787406354F002939747013707F03FC7
:1000B000130800003387E7001306080093060700C3
:1000C000EF20923013080500938805008320C101BA
:1000D0000324810113050800938508001301010220
:1000E00067800000130101FE232E1100232C8100E4
:1000F000232A9100232821012326310123244101B1
:1001000093090500138405009387818B93860189E9
:1001100023A4D7001387818823A6E70013868720AE
:1001200023A2C70C03A6050023A0C70083C5450072
:100130002382B600834644002382D70083268400AE
:100140002322D7000347F4003337E000A384E720DD
:10015000034704013337E0002385E7200347C40049
:100160003337E0002384E7200347D40023A8E722A5
:100170000347E40023AAE722034714013337E000D2
:100180002388E720034724013337E000A388E720D2
:100190000327840123A8E7280327440123AAE7288B
:1001A0000347C4013337E000238CE7280347D40119
:1001B0003337E000A38CE72893072000630EF60C8A
:1001C0000347E4013337E0009387818B2389E720DD
:1001D0000347F4013337E000A389E7209387818B3D
:1001E00003A7470C834604022307D70003A7470C45
:1001F00083461402A307D70003A7470C83462402B3
:100200002308D70003A7470C83463402A308D7006E
:1002100003A7470C834644022309D70083A6470C53
:10022000034754023337E000A381E60003A7470CDD
:10023000832684022320D70683A6470C0347C402E3
:100240003337E000A386E60083A6470C0347D402B9
:100250003337E000A382E60083A6470C0347E4029D
:100260003337E0002383E60003A7470C032604038B
:10027000832644032324C7062326D70683A7470CD7
:10028000032684038326C40323A8C70623AAD7060C
:10029000130700006F0000049387818B23890720D8
:1002A000A38907206FF09FF39387818B83A6470C68
:1002B0009307070193972700B307F40003A60700ED
:1002C0009307C70093972700B387F60023A0C700C2
:1002D0001307170093075000E3D8E7FC130700004B
:1002E0006F0000039387818B83A6470C9307470118
:1002F00093972700B307F40003A68700930707012D
:1003000093972700B387F60023A4C70013071700AD
:1003100093075000E3D8E7FC9387818B03A7470C32
:1003200083260407232CD70603A7470C83264407FC
:10033000232ED70603A7470C832684072320D70242
:1003400003A7470C8326C4072322D70203A7470C21
:10035000832604082320D70883A6470C03474408B4
:100360003337E0002382E60803A707009307200045
:10037000E316F7089387818B83A7470C13071000B8
:100380002382E7009384818B83A7440C032784088E
:1003900023ACE70083A7440C0327C40823AEE7007F
:1003A00083A7440C0327040923AAE7080347440949
:1003B00083A7440C23ACE7080347540983A7440CE4
:1003C00023AEE70883A7440C034764092381E70AA7
:1003D00083A7440C034774092380E70A83A7440CCE
:1003E00003478409A380E70A83A7440C0357A409A1
:1003F0002394E70A03A7440C8347C409B337F000EA
:10040000A305F70A83A7440C0357E4092392E70ADC
:1004100083A7440C0357040A2393E70A83A7440CD9
:100420000347240A2385E70A83A7440C0347340AB9
:100430002386E70A83A7440C0347440A2388E70A74
:1004400083A7440C0347540AA387E70A03A7440C75
:100450008347640AB337F000A306F70A03A7440CE6
:100460008347740AB337F0002307F70A83A7440CC5
:100470000347840AA388E70A83A7440C0347940A26
:10048000238EE70A83A7440C0347A40AA38EE70A36
:1004900003A7440C8347B40AB337F000230FF70ACD
:1004A00083A7440C0347C40AA38DE70A83A7440C1F
:1004B0000347D40AA381E70C83A7440C0347E40A4B
:1004C0002381E70C83A7440C0327040B23A4E70C28
:1004D0000347440B3337E0002386E70C0347540BF4
:1004E0003337E000A386E70C0347640BA38AE70ACF
:1004F00083A7440C0347740B238BE70A83A7440CA0
:100500000347840BA38BE70A83A7440C0347940B90
:10051000238CE70A83A7440C0347A40BA38FE70AA5
:1005200083A7440C0347B40BA380E70C83A7440CB8
:100530000347C40B2380E70C83A7440C0347D40B69
:10054000A389E70A83A7440C0347E40B238AE70A3D
:1005500083A7440C0347F40BA38CE70A83A7440C3E
:100560000347040C238DE70A0327440C83A7440C9C
:100570002389E70A03A7440C8347840CB337F000B0
:100580002302F70C83A7440C0327C40C23A8E70C11
:100590000327040D23AAE70C0347440D3337E0007B
:1005A000238CE70C0327840DA38CE70C0327C40DD1
:1005B000238DE70C0327040EA38DE70C0347440E9D
:1005C0003337E000238EE70C0327840EA38EE70C5D
:1005D0000327C40E238FE70C0327040FA38FE70C18
:1005E0000327440F2380E70E0347840F3337E000CF
:1005F000A380E70E0327C40F23A2E70E03470410CE
:100600003337E0002384E70E034714103337E0004C
:100610002385E70E03274410A384E70E03278410E5
:10062000A385E70E0347C4103337E0002386E70EA7
:100630000347D4103337E000A386E70E03270411E5
:100640002387E70E03274411A387E70E034784118E
:100650003337E0002388E70E034794113337E00077
:10066000A388E70E0347A4113337E0002389E70E80
:100670000327C41123AAE70E03270412238CE70ED5
:100680000327441223A2E7100327841223A6E710AE
:100690000347C41223AEE70E0347D4123337E000FA
:1006A0002380E7100327041323A4E7100327441330
:1006B00023AEE7120327841323ACE7120347C413C6
:1006C0003337E0002382E714032704142390E71450
:1006D000034744143337E000A382E714034754145C
:1006E0003337E0002383E714034764143337E00013
:1006F000A383E71403278414A385E7140327C414F2
:100700002386E714032704152391E71403474415B0
:100710003337E0002384E714034754153337E000F0
:10072000A384E714034764153337E0002385E714F7
:1007300003278415A386E7140327C4152387E7142A
:100740000327041623A8E7120357441623A6E7122B
:10075000030764162384E712034774163337E00057
:10076000238AE71203478416238DE7100347941664
:10077000A38CE7100327C41623A0E712032704174E
:10078000239EE71003274417239FE710034784178E
:100790003337E0002382E712034794173337E00032
:1007A000A382E7120347A4173337E0002383E7123D
:1007B0000347B417A389E70083A7440C0347C41772
:1007C000238AE7008347D41703AA440C9397770042
:1007D00093F7F70F2308FA100347E417131767007E
:1007E000B3E7E7009397870193D787412308FA106F
:1007F0000347F41713175700B3E7E70093978701F0
:1008000093D787412308FA100347041813174700AA
:10081000B3E7E7009397870193D787412308FA103E
:100820000347141813173700B3E7E70093978701BE
:1008300093D787412308FA1003472418131727007A
:10084000B3E7E7009397870193D787412308FA100E
:100850000347341813171700B3E7E70093F7F70FB0
:100860002308FA1003474418B3E7E7002308FA10F7
:1008700003475418131777001377F70FA308EA10EC
:1008800083476418939727003367F7001377F70FB0
:10089000A308EA10834774189397770093F7F70F2C
:1008A0002309FA108346841893966600B3E7D700AD
:1008B0009397870193D787412309FA1083469418A9
:1008C00093965600B3E7D7009397870193D7874154
:1008D0002309FA108346A41893964600B3E7D7007D
:1008E0009397870193D787412309FA108346B41859
:1008F00093963600B3E7D7009397870193D7874144
:100900002309FA108346C41893962600B3E7D7004C
:100910009397870193D787412309FA108346D41808
:1009200093961600B3E7D70093F7F70F2309FA1051
:100930008346E418B3E7D7002309FA108327041984
:1009400093F737003367F700A308EA1083274419A9
:100950009397470093F7F70FA309FA100327841919
:100960001377F700B3E7E700A309FA108327C41948
:100970009397470093F7F70F230AFA100327041AF7
:100980001377F700B3E7E700230AFA100325441AA8
:100990009305B004130555FBEF60924C1375750079
:1009A000230BAA108347841A939757003365F500E9
:1009B000230BAA108347941AB337F0002306FA00DA
:1009C00083A7440C0347C41A3337E0002388E71495
:1009D0000347D41A3337E000A388E7140347E41A27
:1009E0003337E0002389E7140347F41A3337E00074
:1009F000A389E7140347041B3337E000238AE71475
:100A00000347141B3337E000A38AE7140347241B72
:100A10003337E000238BE7140347341B3337E00000
:100A2000A38BE7140347441B3337E000238CE71400
:100A30000347541B3337E000A38CE7140347641BC0
:100A40003337E000238DE7140347741B3337E0008E
:100A5000A38DE7140347841B238EE7140347941BDD
:100A6000A38EE7140347A41B238FE7140347B41B8B
:100A7000A38FE7140347C41B2380E7160347D41B47
:100A8000A380E7160347E41B2381E7160347F41B03
:100A9000A381E7160327041C23A4E7160327441C9D
:100AA0002386E7160327841CA386E7160347C41C86
:100AB0003337E0002382E7160347D41C3337E000C6
:100AC000A382E7160327041D2397E7160327441D77
:100AD0002398E7160327841D2389E7160327C41DDF
:100AE000A389E7160327041E238AE7160327441E5B
:100AF000A38AE71613071000A383E70083A7440C1B
:100B00008326841E23ACD7168326C41E23AED71695
:100B10008326041F23A0D7188326441F23A2D71897
:100B2000A38A07108346A41AA38BD7108346B41A4E
:100B3000238CD710238F04149307300023AAF410BA
:100B4000A38EE414238EE4149307100023ACF41452
:100B5000238FF418A38FE4182380E41A23A6041E1D
:100B600023A8041E23AA041E23AC041E23AE041EC5
:100B700023A004201385818BEF700004930570037C
:100B800003A58400EF10903B1375850F9307800039
:100B90006312F5080327841F9387818B23ACE70A30
:100BA0000327C41F23AEE70A0327042023A0E70C72
:100BB0001385818BEFB0105E634205061385818B30
:100BC000EF7010521385818BEFB04054634C0504D5
:100BD0009387818B23A0F900130500008320C101B6
:100BE0000324810183244101032901018329C100D8
:100BF000032A810013010102678000009387818B23
:100C000003A7470C83475408B337F0002302F700CB
:100C10006FF04FF71305D0FE6FF05FFC1305D0FEA9
:100C20006FF0DFFB1305D0FE6FF05FFB8327450CF1
:100C3000238107009307700063EAB70C130101FFDB
:100C40002326110023248100232291002320210147
:100C500093952500B7870280938707B2B385F50087
:100C600083A7050067800700930400001309600054
:100C70006F00000693040000130950006F00400548
:100C8000930400001309A0006F0080049304000087
:100C9000130900006F00C00393040000130900084B
:100CA0006F00000393041000130900006F0040025E
:100CB0008327450C130710002381E70093040000ED
:100CC0001309A0006F00C000930400001309800006
:100CD000130405008327450C1386040083C5170001
:100CE000EF80D05E1386040093050900130504000D
:100CF000EF80402C8320C100032481008324410025
:100D00000329010013010101678000001305A0FE03
:100D100067800000130101FF2326110023248100B6
:100D2000232291002320210193040500138905004B
:100D30009305700103258500EF1050201374F50012
:100D40009305400103A58400EF10501F13750501A2
:100D50006316050213070000930760006302F404A2
:100D600063F287029307A0006304F40693078000F0
:100D70006308F4041305A0FE6F00000313071000BE
:100D80006FF09FFD630C040693075000E314F4FE1C
:100D9000930720002320F900130500006F00C00016
:100DA00023200900130500008320C10003248100D3
:100DB0008324410003290100130101016780000021
:100DC000930710002320F900130500006FF0DFFDEA
:100DD00083A7440C83C72700638A0700930770002A
:100DE0002320F900130500006FF01FFC930730006B
:100DF0002320F900130500006FF01FFB630A0700B2
:100E0000930760002320F900130500006FF0DFF95D
:100E1000930740002320F900130500006FF0DFF86E
:100E2000130101FC232E1102232C81022326010031
:100E300023280100232A0100232C0100232E010076
:100E4000232001022322010223240102232601027E
:100E50008327450C83C7070063960700930710009C
:100E6000638CF502130405002328C10013861500C6
:100E700093050000EF6010511306C10093050500B3
:100E800013050400EF7090168320C103032481032F
:100E900013010104678000001305F0FF6FF0DFFE0F
:100EA000130101FC232E1102232C8102232A91021B
:100EB0002326010023280100232A0100232C0100FE
:100EC000232E0100232001022322010223240102F8
:100ED000232601028327450C83C70700639607007A
:100EE000930710006382F5049304060013040500C1
:100EF0001386150093050000EF60D0481306C1006B
:100F00009305050013050400EF70005783270101C6
:100F100023A0F4008320C10303248103832441031D
:100F200013010104678000001305F0FF6FF09FFEBE
:100F3000130101FF2326110023248100130405005F
:100F4000EF6040358327C4146382A702032604158B
:100F50009305050013050400EF90006C8320C10089
:100F600003248100130101016780000013050000C4
:100F70006FF0DFFE8327C51423A0F50013050000E2
:100F800067800000130101FC232E1102232C810233
:100F9000130405001307010093068101032685153C
:100FA000EF80007063420502130601009305810182
:100FB00013050400EF80003F032604158325C414A5
:100FC00013050400EF9040658320C10303248103CF
:100FD0001301010467800000130101FF23261100A3
:100FE000232481001384050083250508EFC0804178
:100FF0002320A400130500008320C10003248100E6
:101000001301010167800000130101FF2326110075
:101010002324810023229100130405008324850AE0
:101020001385050093050600EF60907F1306050009
:101030009385040013050400EFC0804A8320C1009B
:101040000324810083244100130101016780000013
:10105000130101FF232611002324810013840500BE
:101060008325850AEFC0003AEF60907C2320A4001E
:101070002322B400130500008320C1000324810053
:10108000130101016780000003270500930720007A
:101090006306F702130101FF232611008327450C85
:1010A0003337B0002385E7000325850AEFA0107EC3
:1010B0008320C10013010101678000001305F0FFC8
:1010C000678000008327450C83C7070063960700ED
:1010D00093071000638AF504130101FF2326110012
:1010E00023248100232291009304060013040500A9
:1010F0001386150093050000EF60D02823A0A400FC
:10110000930710002388F40093850400130504005E
:10111000EF7090218320C1000324810083244100CB
:1011200013010101678000001305F0FF67800000D4
:10113000130101FE232E1100232C8100232A91008C
:101140002328210123240100232601008327450CA5
:1011500083C707006396070093071000638AF504AE
:101160001309060013840500930405001386150077
:1011700093050000EF6010212324A1003384840034
:10118000230E2419230621019305810013850400F1
:10119000EF70407D130500008320C101032481010D
:1011A000832441010329010113010102678000002A
:1011B0001305F0FF6FF05FFEB305B50083C7C519D7
:1011C0002300F6001305000067800000130101FFF3
:1011D0002326110083A78500230DF51883A705009A
:1011E0001387C50083C6C51003A6450093E507080D
:1011F000EF90804D8320C100130101016780000042
:10120000130101FE232E1100232C8100232A9100BB
:101210002328210123263101930405001309060028
:101220009385150093F9F50F9305500F032585005D
:10123000EF10C050634A050E130405009357550084
:1012400093F7770093871700939747002306F910C9
:101250009305600F03A58400EF10404E6346050C14
:1012600013753500931725003305F54093171500C6
:10127000938767002322F90023203901137474FE39
:101280009399390093F98901B3E9890013E629009C
:101290009305500F03A58400EF10500413040000C1
:1012A0009317840193D7874163C20706130604008E
:1012B0009305000F03A58400EF1050029305300F33
:1012C00003A58400EF1080476340050693171400C0
:1012D000B307F9002396A7009305400F03A58400E8
:1012E000EF10C045634205041315850093171400E1
:1012F000B307F90003D7C7003365E5002396A700BD
:10130000130414001374F40F6FF09FF913F6D9FF50
:101310009305500F03A58400EF10407C83C7A419E8
:101320002324F900130500008320C1010324810157
:1013300083244101032901018329C1001301010212
:10134000678000008347C51593B51500638EB7020B
:10135000130101FF2326110023248100130405003B
:10136000230EB514EF905017634A05008320C10087
:10137000032481001301010167800000930710001E
:10138000230EF4146FF09FFE130500006780000029
:101390008347C51593C717002380F5001305000088
:1013A000678000008347E5196386B702130101FFD8
:1013B000232611003336B000230FC5188346051AC3
:1013C0008345F519EF7090068320C10013010101D8
:1013D0006780000013050000678000008347E5195F
:1013E0002380F50013050000678000008347F5198E
:1013F0006386B702130101FF23261100B335B00045
:10140000A30FB5188346051A0346E519EF701002BD
:101410008320C10013010101678000001305000053
:10142000678000008347F5192380F500130500004D
:10143000678000008347051A6386B702130101FF26
:1014400023261100B336B0002300D51A0346E51950
:101450008345F519EF70807D8320C10013010101E0
:101460006780000013050000678000008347051AAD
:101470002380F5001305000067800000130101FFC1
:10148000232611000327450C2320B7028327450C90
:1014900083A6470203A6070293050000EF70D01150
:1014A0008320C10013010101678000008327450CE0
:1014B00083A7070223A0F500130500006780000042
:1014C000130101FF23261100138605009305000078
:1014D000EF8010028320C10013010101678000002A
:1014E000130101FF23261100138605009305000058
:1014F000EF8090368320C100130101016780000056
:10150000130101FF23261100930606001386050030
:1015100093050000EF8000698320C10013010101E1
:1015200067800000130101FF2326110093060600C7
:101530001386050093050000EF8050548320C100FE
:1015400013010101678000008327450C83C7070052
:1015500063960700930710006380F506130101FFEF
:1015600023261100232481002322910093040600E6
:10157000138605001304050093051000EF608060DA
:101580009306F5FF8327440C03C74708134717004A
:1015900093B6160013361500938504001305040056
:1015A000EF60904B8320C10003248100832441001D
:1015B00013010101678000001305F0FF6780000040
:1015C0008327450C83C70700639607009307100025
:1015D000638AF504130101FF2326110023248100EF
:1015E00023229100930406001304050013861500BE
:1015F00093051000EF6000599305050013050400E2
:10160000EF60D0566346050023A0A4001305000038
:101610008320C100032481008324410013010101C0
:10162000678000001305F0FF67800000130101FFD1
:10163000232611002324810013040500EF50904558
:10164000832704156382A702130605008325C414AB
:1016500013050400EF80507C8320C1000324810027
:101660001301010167800000130500006FF0DFFE29
:101670008327051523A0F5001305000067800000EF
:10168000130101FC232E1102232C810213040500F7
:10169000130701009306810103268515EF804000A2
:1016A000634205021306010093058101130504003E
:1016B000EF70504F032604158325C414130504004E
:1016C000EF8090758320C10303248103130101047B
:1016D00067800000130101FF2326110023248100ED
:1016E0001384050083254509EFB0D0512320A400C1
:1016F000130500008320C1000324810013010101B0
:1017000067800000130101FF2326110023248100BC
:1017100023229100130405008324C50A13850500C4
:1017200093050600EF60D00F1306050093850400B3
:1017300013050400EFB0D05A8320C10003248100B8
:10174000832441001301010167800000130101FFA0
:101750002326110023248100138405008325C50A54
:10176000EFB0504AEF60D00C2320A4002322B40035
:10177000130500008320C10003248100130101012F
:101780006780000003270500930720006306F70227
:10179000130101FF232611008327450C3337B000C6
:1017A000A385E7000325C50AEFA0500E8320C100E2
:1017B00013010101678000001305F0FF678000003E
:1017C000130101FF2326110083A78500230CF518C0
:1017D0001387C50083C6C51003A6450083A5050071
:1017E000EF80906E8320C10013010101678000002B
:1017F000130101FE232E1100232C8100232A9100C6
:101800002328210123263101930405001309060032
:101810009385150093F9F50F930550060325850070
:10182000EF00D071634E050C9357550093F7770086
:1018300093871700939747002306F91093771500B5
:1018400013972700B387E740139717002322E90077
:1018500023203901137575FE9399390093F9890195
:10186000B3E9A90013E629009305500603A58400F7
:10187000EF10C026130400009317840193D787410B
:1018800063C20706130604009305000603A584003F
:10189000EF10C0249305300603A58400EF00106A02
:1018A0006340050693171400B307F9002396A700B9
:1018B0009305400603A58400EF00506863420504C9
:1018C0001315850093171400B307F90003D7C70059
:1018D0003365E5002396A700130414001374F40F76
:1018E0006FF09FF913F6D9FF9305500603A5840006
:1018F000EF10C01E83C784192324F90013050000CC
:101900008320C101032481018324410103290101B2
:101910008329C10013010102678000008347D515A8
:1019200093B51500638EB702130101FF2326110042
:101930002324810013040500A30EB514EF90C039D1
:10194000634A05008320C1000324810013010101C3
:101950006780000093071000A30EF4146FF09FFE41
:1019600013050000678000008347D51593C7170053
:101970002380F5001305000067800000130101FEBD
:10198000232E1100232C8100232A910023282101DA
:101990001384050093040600930630001306C1006B
:1019A0009305D00603258500EF00103D634605062C
:1019B000630A040093071000630CF4061305A0FEED
:1019C0006F0080058347E100939717000347C1002C
:1019D00013771700B3E7E700139717003307F700F3
:1019E000131437003304F400930540061305040074
:1019F000EF5012479305803EEF50523B130905000C
:101A00009305400613050400EF50124A3305A90060
:101A100023A0A400130500008320C1010324810139
:101A200083244101032901011301010267800000A1
:101A30008347D100939717000347C10013571740FE
:101A400013771700B3E7E7006FF01FF9130101FFE9
:101A5000232611000327450C2322B7028327450CB8
:101A600083A6470203A6070293051000EF70C03457
:101A70008320C10013010101678000008327450C0A
:101A800083A7470223A0F50013050000678000002C
:101A9000638A050093071000A30CF51013050000DE
:101AA00067800000A30C05106FF05FFF834795115E
:101AB0002380F5001305000067800000130101FF7B
:101AC000232611001386050093051000EF804022A5
:101AD0008320C1001301010167800000130101FF91
:101AE000232611001386050093051000EF80C056D1
:101AF0008320C1001301010167800000130101FF71
:101B00002326110093060600138605009305100096
:101B1000EF8040098320C1001301010167800000AC
:101B2000130101FF2326110093060600138605000A
:101B300093051000EF8080748320C1001301010120
:101B400067800000130101FF232611002324810078
:101B500013040500EF701005634A05000326041501
:101B60008325C41413050400EF80102B8320C100CB
:101B7000032481001301010167800000130101FFAC
:101B800023261100EF7010228320C10013010101F0
:101B90006780000093071000638AF5009307200018
:101BA0006382F5241305A0FE678000008327450C9F
:101BB00023800700130101FF232611002324810045
:101BC0002322910013040500EF50107F1306100824
:101BD0009305000003258400EF00507013060000F9
:101BE0009305000003258400EF00506F8327C40095
:101BF0008324840183A5470003258406EF90003DDC
:101C000023A2A4008327C4008324840183A5470062
:101C100003258406EF90803B23A2A4008327C40001
:101C20008324440183A5470003254406EF90003A2E
:101C300023A2A4008327C4008324040183A54700B2
:101C400003250406EF90803823A2A4008327040113
:101C50008324C40183A547000325C406EF90C05028
:101C600023A2A4008327C4018324040283A5470080
:101C700003250407EF90803523A2A40083270402E4
:101C80008324440283A5470003254407EF900034D2
:101C900023A2A400832744028324840283A547004F
:101CA00003258407EF90803223A2A40083278402B7
:101CB0008324C40283A547000325C407EF900031A5
:101CC00023A2A4008327C4028324040383A547001E
:101CD00003250408EF90802F23A2A4008327040289
:101CE0008324440383A5470003254408EF90002E76
:101CF00023A2A400832744038324840383A54700ED
:101D000003258408EF90802C23A2A400832784035A
:101D10008324C40383A547000325C408EF90002B48
:101D200023A2A4008327C4038324040483A54700BB
:101D300003250409EF90802923A2A400832704042B
:101D40008324440483A5470003254409EF90002819
:101D500023A2A400832744018324840483A547008D
:101D600003258409EF90807C23A2A40083278401AB
:101D70008324C40483A547000325C409EF90007B96
:101D800023A2A400832404050325040AEF90105322
:101D900023A2A400832444050325440AEF90105293
:101DA00023A2A400832484050325840AEF905055C0
:101DB00023A2A4008324C4050325C40AEF90505431
:101DC00023A2A40013050400EFA040341305000073
:101DD0008320C100032481008324410013010101F9
:101DE000678000008327450C130710002380E7005D
:101DF0006FF05FDC03270500930720006306F70EF2
:101E000003A705006306F70E130101FE232E110040
:101E1000232C8100232A9100232821011389050006
:101E2000930405009305600003258500EF00101161
:101E3000130605009305600003258900EF00104A92
:101E40009305700003A58400EF00500F13060500F2
:101E50009305700003258900EF0050489305C100E9
:101E600013850400EFE01FEB9305200013850400A9
:101E7000EFE0DFDB9305200013050900EFE01FDB37
:101E8000130400006F00800293050400130509008D
:101E9000EF80C0469305040013850400EF800046E0
:101EA00013054006EFC08009130414009307500087
:101EB000E3DC87FC8325C10013850400EFE01FD716
:101EC0008325C10013050900EFE05FD6130500006C
:101ED0008320C101032481018324410103290101DD
:101EE00013010102678000001305F0FF6780000006
:101EF0001305F0FF678000008347C5150347D5151C
:101F00006396E70013B715006384E704130101FF2C
:101F100023261100232481001304050093B5150026
:101F2000230EB514A30EB514EF80105B634A0500B1
:101F30008320C10003248100130101016780000098
:101F400093071000230EF414A30EF4146FF05FFE39
:101F50001305000067800000638A050093071000E6
:101F6000232CF5141305000067800000232C0514B2
:101F70006FF05FFF8327851523A0F5001305000090
:101F800067800000130101FF23261100EF80405BF2
:101F90008320C1001301010167800000130101EBE0
:101FA0002326111423248114232291142320211584
:101FB000232E3113232C411313040500138905002C
:101FC0009304060023280518232A0518A30F0514D7
:101FD00083274612639207109309F0FF8327491263
:101FE00063980710130AF0FF83A784126384070025
:101FF000232AF41883278912638407002328F418FE
:1020000093870400130701009384C41203A80700F8
:1020100003A5470083A5870003A6C70083A6070181
:10202000232007012322A7002324B7002326C7006B
:102030002328D7009387470113074701E39897FCAC
:102040009305010013050400EFF08FF71307090053
:10205000930701001309C91203280700032547004D
:10206000832587000326C7008326070123A00701D5
:1020700023A2A70023A4B70023A6C70023A8D70044
:102080001307470193874701E31827FD93050100D4
:1020900013050400EFF08F93B3E94901639609003B
:1020A00093071000A30FF414930510001305040008
:1020B000EFF09FE4130500008320C1140324811472
:1020C00083244114032901148329C113032A811392
:1020D0001301011567800000130680019385041128
:1020E00013058517EFB01074930900006FF01FEF10
:1020F000130680019305091113050416EFB09072C1
:10210000130A00006FF05FEE130101FF2326110098
:102110000327450C232CB7008327450C03A6C701D2
:1021200083A58701EF6050438320C10013010101A3
:1021300067800000130101FF232611000327450CCF
:10214000232EB7008327450C03A6C70183A587016B
:10215000EF6090408320C1001301010167800000FF
:10216000638A0500639A0502638205021305100065
:102170006780000063980500B7777C4D938707D090
:10218000E3E2A7FE1305000067800000B7376BEE9F
:1021900093870780E3FCA7FC1305200067800000FD
:1021A000B7F7FA029387F70763FCA700B7272C0459
:1021B000938707D863EAA700130510006780000023
:1021C00013050000678000001305200067800000F1
:1021D0002320B5002322C5002324D5002326E500B3
:1021E0002328F500232A05016780000093D71500F6
:1021F00063F0A70263F8A5029397150063FEA7009A
:102200009395250063EEA500135525006780000017
:102210001315150067800000135515006780000036
:1022200013050000678000001305000067800000B0
:10223000832785009397470093F7F70F0327C5007F
:102240001377F700B3E7E700130720016380E70483
:10225000637EF700130740016382E7021307100251
:102260006392E70213053000678000001307100136
:10227000639AE70013050000678000001305200043
:10228000678000001305A0FE6780000013051000A2
:1022900067800000130101FF232611002324810021
:1022A0002322910023202101938405008327450CDC
:1022B00003C70700630E07021305400003C427117C
:1022C00013740401630A040293051000EF50C2382E
:1022D00083A54401EF50822D13090500631E0406F7
:1022E000B787A90363EEA700130410006F00C003B3
:1022F000130520006FF09FFC930520006FF01FFD79
:10230000B7850280938585C137950280130585378F
:10231000EFB090711305A000EFB090761305A0FE0A
:102320006F008009130414009307300063CA87020A
:102330009305040003A54400EF5082323305254184
:102340009307D0FFE340F5FE93073000E3CCA7FCF2
:10235000130500006F004006130410006FF0DFFC4F
:10236000130710006F008000130717009307400049
:1023700063C4E70283A78400B3D7E700B38727418C
:102380009306D0FFE3C2D7FE93063000E3CEF6FCFF
:10239000130500006F004002B7850280938585C158
:1023A000379502801305453AEFB010681305A00079
:1023B000EFB0106D1305A0FE8320C100032481003F
:1023C00083244100032901001301010167800000FB
:1023D000130101FE232E1100232C8100232A9100DA
:1023E00013078000636CD70A9387050013840600E7
:1023F0009305060013870700930405009387F6FFF3
:102400009397070193D707019397C700B77600000A
:10241000B3F7D7001377F73FB3E7E7003787FFFF3E
:10242000B3E7E7009397070193D7070113D7870016
:102430002302E100A302F10013060400130561006A
:10244000EFB0503E1307000093060000130624006F
:102450009305410013850400EFB0D0151304050067
:102460006340050213040000130504008320C1012A
:1024700003248101832441011301010267800000CC
:1024800093050500379502801305C53FEFB0D0597D
:102490001305A000EFB0D05E6FF01FFD1304A0FE87
:1024A0006FF09FFC130101FD2326110223248102FA
:1024B0002322210323203103232E4101232C510108
:1024C0001309050093890500130A0600938A060084
:1024D000130408001306070093860700EF50420F0D
:1024E0002324A1002326B100B7058000938515FFA2
:1024F0001306000013058100EFB0005813060A0010
:1025000093860A001305090093850900EF50420CD9
:10251000032781003307A700B337A7008326C10034
:10252000B385B600B387B7009305140093F6050290
:102530006386060233D5B700930500008320C102ED
:10254000032481020329410283290102032AC101D4
:10255000832A81011301010367800000939617000D
:1025600013C6F5FFB396C6003355B70033E5A60092
:10257000B3D5B7006FF09FFC130101FE232E1100AD
:10258000232C81009307800063E0D708138706009F
:10259000930606009307F7FF9397070193D7070168
:1025A0009397C70037760000B3F7C70093F5F53F60
:1025B000B3E5B70093D785002306F100A306B10069
:1025C000130620009305C100EFB0C07E1304050080
:1025D000634E050013040000130504008320C101AD
:1025E00003248101130101026780000093050500A7
:1025F000379502801305C540EFB010431305A000C6
:10260000EFB010486FF05FFD1304A0FE6FF0DFFC29
:1026100063080604130101FE232E1100232C810000
:10262000232A9100938406001304060093061000E9
:102630001306F100EFF05FF4634A05000346F10072
:102640003376C400B356964013F5F60F8320C101CC
:1026500003248101832441011301010267800000EA
:102660001305A0FE67800000130101FE232E110058
:10267000232C8100232A91002328210123263101C4
:102680002324410123225101930A050013890500E7
:1026900093040600138A06003714000013048438DC
:1026A0006F0080011305004BEFB090079307F4FF14
:1026B000630004041384070083A98A0013850400BF
:1026C000EFB08045930605001386040093050900CA
:1026D00013850900EFF0DFF3630E450393076001F4
:1026E000E302F9FC13058007EFB090036FF01FFCC5
:1026F0001386040093050900379502801305C54130
:10270000EFB090321305A000EFB09037130520F919
:102710006F008000130500008320C10103248101A4
:1027200083244101032901018329C100032A810077
:10273000832A41001301010267800000130101FE9A
:10274000232E1100930610001306F100EFF0DFE2D4
:10275000634405000345F1008320C1011301010218
:1027600067800000130101FF23261100232481004C
:1027700023229100232021018324050083270501C2
:102780001307D0006368F7341304050093972700FC
:1027900037870280130707B4B387E70083A70700D2
:1027A000678007009305500413850400EFF01FF9BC
:1027B0001375350093071000630AF52C630E052A84
:1027C000930720006300F52E930730006308F52E71
:1027D0001305A0FE6F00000913051000EFB0C03311
:1027E00093060500130610009305B02A1385040014
:1027F000EFF01FE21309050013050008EFB0C03128
:1028000093060500130600089305C02A13850400EB
:10281000EFF01FE0131919003365A9006FF09FF95D
:102820001305C000EFB0402F930605001306C0004B
:102830009305C02A13850400EFF09FDD6FF09FF72A
:102840009305A00013850400EFF05FEF137575008A
:10285000930710003395A7002324F4002326A40037
:10286000130500008320C10003248100832441005C
:102870000329010013010101678000001305000313
:10288000EFB080299306050013060003930530007E
:1028900013850400EFF0DFD7130515009307100030
:1028A0002324F4002326A400130500006FF09FFBEF
:1028B00013058000EFB04026930605001306800044
:1028C0009305300013850400EFF09FD41305150025
:1028D000930710002324F4002326A400130500000E
:1028E0006FF05FF813054000EFB00023930605007A
:1028F000130640009305300013850400EFF05FD10C
:1029000013051500930710002324F4002326A400C8
:10291000130500006FF01FF513053000EFB0C01F66
:10292000930605001306300093053000138504005C
:10293000EFF01FCE630205021305F5FF93071000A9
:102940003395A700930710002324F4002326A40046
:10295000130500006FF01FF1130510006FF09FFECC
:1029600013058000EFB0401B93060500130680009E
:102970009305A00013850400EFF09FC9130515000F
:10298000930710002324F4002326A400130500005D
:102990006FF05FED13050003EFB00018930605001C
:1029A000130600039305200013850400EFF05FC6B3
:1029B00013051500930710002324F4002326A40018
:1029C000130500006FF01FEA13058000EFB0C0147C
:1029D000930605001306800093052000138504006C
:1029E000EFF01FC313051500930710002324F40014
:1029F0002326A400130500006FF0DFE61305400056
:102A0000EFB08011930605001306400093052000E7
:102A100013850400EFF0DFBF1305150093071000C6
:102A20002324F4002326A400130500006FF09FE385
:102A300013053000EFB0400E93060500130630007A
:102A40009305200013850400EFF09FBC630205028C
:102A50001305F5FF930710003395A70093071000A7
:102A60002324F4002326A400130500006FF09FDF49
:102A7000130510006FF09FFE930710002324F4004D
:102A80002326F400130500006FF0DFDD930710002C
:102A90002324F400930720002326F40013050000EC
:102AA0006FF05FDC930710002324F40093074000CD
:102AB0002326F400130500006FF0DFDA93072000EF
:102AC0002324F400930710002326F40013050000CC
:102AD0006FF05FD91305A0FE6FF0DFD8130101FE80
:102AE000232E1100232C810093F5F53FB787FFFFBC
:102AF000B3E5F5009395050193D5050193D78500BE
:102B00002306F100A306B1002307C100130700004C
:102B100093060000130630009305C100EFB0802932
:102B2000634E050013040000130504008320C10157
:102B300003248101130101026780000013040500D2
:102B400093050500379502801305C53FEFB0C06DB2
:102B50001305A000EFB0C0726FF01FFD63080608F8
:102B6000130101FD23261102232481022322910255
:102B700023202103232E3101232C4101930407003C
:102B8000138A060013040600938905001309050043
:102B9000930610001306F100EFF01F9E6348050234
:102BA0001376F40F9347F6FF0347F100B3F7E700FE
:102BB000B39644013376D60033E6C700A307C100BD
:102BC0009385090013050900EFF05FF18320C1022E
:102BD0000324810283244102032901028329C101C4
:102BE000032A810113010103678000001305A0FE81
:102BF00067800000130101FE232E1100232C8100A9
:102C0000232A9100232821012326310183248500D2
:102C100083278600130780026364F70A930905007F
:102C2000138905001304060003270601930680019B
:102C300063E8E608832646011306F0016362D608BE
:102C400063960700631407006384060C1305F007FE
:102C5000EFA0906C03278400930605001306F0078D
:102C60009305090013850400EFF05FEF1305F001F1
:102C7000EFA0906A03270401930605001306F001F4
:102C80009305190013850400EFF05FED83A7490C4D
:102C900083C7B70A639C070883274401639C070A1C
:102CA000130500008320C101032481018324410115
:102CB000032901018329C10013010102678000007B
:102CC000930580023795028013050544EFB0C05587
:102CD0001305A000EFB0C05A93058001379502801C
:102CE00013050547EFB040541305A000EFB040595D
:102CF0009305F001379502801305054AEFB0C052E5
:102D00001305A000EFB0C0571305A0FE6FF09FF9A8
:102D1000379502801305454CEFB000511305A00014
:102D2000EFB000561305A0FE6FF0DFF71305F001BA
:102D3000EFA0905E03274401930605001306F001FF
:102D40009305290013850400EFF05FE113050000EF
:102D50006FF05FF53795028013050550EFB0C04C5A
:102D60001305A000EFB0C051130500006FF09FF3F2
:102D7000130101FF23261100232481002322910047
:102D800023202101930405001384050003298500F5
:102D90001305C000EFA050581347F4FF9306050039
:102DA0001306C0009305700513050900EFF01FDB43
:102DB00003A9840013050002EFA010561377140036
:102DC00093060500130600029305E00613050900AB
:102DD000EFF0DFD883A4840013050008EFA0D053E0
:102DE000137724003337E00093060500130600082C
:102DF0009305E00613850400EFF05FD68320C10041
:102E000003248100832441000329010013010101EF
:102E100067800000130101FF232611002324810095
:102E20002322910023202101130906000324850099
:102E3000639005049304002313051000EFA0D04D08
:102E4000134719009306050013061000938504002C
:102E500013050400EFF09FD08320C10003248100FC
:102E60008324410003290100130101016780000050
:102E7000930400276FF05FFC130101FF232611006C
:102E80002324810023229100639E050203248500F0
:102E900013050001EFA0504813070000930605003A
:102EA000130600019305A00013050400EFF01FCBEB
:102EB0008320C10003248100832441001301010108
:102EC0006780000013840500832485001305000F2C
:102ED000EFA090441307F4FF1317170013671700B0
:102EE000930605001306000F9305A0001385040048
:102EF000EFF0DFC66FF0DFFB130101FE232E1100A0
:102F0000232C8100232A910023282101232631012B
:102F100003290500832705011307D0006368F74ADA
:102F200093840500130405009397270037870280D8
:102F3000130787B7B387E70083A7070067800700F9
:102F4000EFF00FAF1304050063440510639604000F
:102F5000130400006F00C00F13053000EFA0D03B3A
:102F60001307040093060500130630009305500470
:102F700013050900EFF09FBE130405006F00400D1C
:102F8000EFF00FAB130405006344050C63960400D7
:102F9000130400006F00C00B13051000EFA0D03722
:102FA0001357140093060500130610009305B02A6A
:102FB00013050900EFF09FBA9304050013050008FC
:102FC000EFA0903513771400930605001306000850
:102FD0009305C02A13050900EFF05FB833E4A4009D
:102FE0006F000007EFF0CFA413040500634205064D
:102FF00063960400130400006F0080051305C000F1
:10300000EFA0903113070400930605001306C000DB
:103010009305C02A13050900EFF05FB413040500FF
:103020006F0000030345C500EFA0501B9309050086
:103030000327840093071000631EF738930760008E
:1030400063EEA7386300053A63940402130400009A
:10305000130504008320C10103248101832441015D
:10306000032901018329C1001301010267800000C7
:1030700013057000EFA0502A13870900930605007E
:10308000130670009305A00013050900EFF01FADB3
:10309000130405006FF0DFFB032785009307100082
:1030A0006316F7348327C500130730006364F734D1
:1030B0006386073463960500130400006FF05FF920
:1030C00013050003EFA050250327C4001307F7FFE3
:1030D000930605001306000393053000130509004D
:1030E000EFF0DFA7130405006FF09FF603278500BC
:1030F000930710006318F7308327C50013072000DB
:103100006366F73063880730639605001304000098
:103110006FF01FF413058000EFA010200327C400F8
:103120001307F7FF93060500130680009305300090
:1031300013050900EFF09FA2130405006FF05FF183
:103140000327850093071000631AF72C8327C50017
:10315000130720006368F72C638A072C6396050029
:10316000130400006FF0DFEE13054000EFA0D01A4B
:103170000327C4001307F7FF93060500130640005A
:103180009305300013050900EFF05F9D130405005F
:103190006FF01FEC0327850093071000631CF728CE
:1031A0000325C5009307400063EAA728630C0528A0
:1031B00093073000630CF5288327440083C7C715A5
:1031C000638A070013040000639C040013040000DA
:1031D0006FF01FE8EFA09000130415006FF0DFFE02
:1031E00013053000EFA050131307040093060500E9
:1031F000130630009305300013050900EFF01F9609
:10320000130405006FF0DFE4032785009307100027
:103210006312F7248327C500130720006360F72497
:103220006382072463960500130400006FF05FE2D9
:1032300013058000EFA0500E0327C4001307F7FF0B
:1032400093060500130680009305A00013050900EE
:10325000EFF0DF90130405006FF09FDF0327850078
:10326000930710006314F7208327C500130730006D
:103270006362F7206384072063960500130400004F
:103280006FF01FDD13050003EFA010090327C40032
:103290001307F7FF930605001306000393052000AC
:1032A00013050900EFF09F8B130405006FF05FDA40
:1032B00003278500930710006316F71C8327C500BA
:1032C000130720006364F71C6386071C63960500E0
:1032D000130400006FF0DFD713058000EFA0D003C8
:1032E0000327C4001307F7FF9306050013068000A9
:1032F0009305200013050900EFF05F861304050015
:103300006FF01FD503278500930710006318F71887
:103310008327C500130720006366F7186388071822
:1033200063960500130400006FF09FD21305400060
:10333000EFA0807E0327C4001307F7FF9306050064
:10334000130640009305200013050900EFF01F81CC
:10335000130405006FF0DFCF0327850093071000EB
:10336000631AF7140325C5009307400063E8A71408
:10337000630A051493073000630AF5148327440099
:1033800083C7D715638A070013040000639C0400F9
:10339000130400006FF0DFCBEFA0406413041500AE
:1033A0006FF0DFFE13053000EFA000771307040075
:1033B000930605001306300093052000130509004D
:1033C000EFF0CFF9130405006FF09FC81304A0FEBF
:1033D0006FF01FC81304A0FE6FF09FC71304A0FE78
:1033E0006FF01FC71304A0FE6FF09FC61304A0FE6A
:1033F0006FF01FC61304A0FE6FF09FC51304A0FE5C
:103400006FF01FC51304A0FE6FF09FC41304A0FE4D
:103410006FF01FC41304A0FE6FF09FC31304A0FE3F
:103420006FF01FC31304A0FE6FF09FC21304A0FE31
:103430006FF01FC21304A0FE6FF09FC11304A0FE23
:103440006FF01FC11304A0FE6FF09FC01304A0FE15
:103450006FF01FC01304A0FE6FF09FBF1304A0FE07
:103460006FF01FBF1304A0FE6FF09FBE1304A0FEF9
:103470006FF01FBE1304A0FE6FF09FBD1304A0FEEB
:103480006FF01FBD1304A0FE6FF09FBC1304A0FEDD
:103490006FF01FBC1304A0FE6FF09FBB1304A0FECF
:1034A0006FF01FBB1304A0FE6FF09FBA1304A0FEC1
:1034B0006FF01FBA1304A0FE6FF09FB91304A0FEB3
:1034C0006FF01FB91304A0FE6FF09FB81304A0FEA5
:1034D0006FF01FB8130101FE232E1100232C810071
:1034E000232A91002328210123263101232441018D
:1034F000130A0500138905001304060083248500C0
:103500001305F007EFA04061930605001306F007CE
:103510009305090013850400EFF08F8F2324A40086
:103520009305001313850400EFF04FA193090500E4
:10353000032684009305001313850400EFF00FDACF
:103540009305401313850400EFF04F9F93575500E8
:1035500093F73700232CF4001375F5012320A40200
:1035600013050002EFA0405B93060500130600025E
:103570009305501313850400EFF08F89232EA400C8
:1035800083264A1103268401B7870280938747C5A3
:10359000139726003387E7003307C70003070700A8
:1035A0000326040293964600B387D700B387C7006B
:1035B0008387C700B307F700138701813305E50050
:1035C00003070500B387E7002326F40013860900EC
:1035D0009305001313850400EFF04FD01305F0019D
:1035E000EFA08053930605001306F0019305190020
:1035F00013850400EFF0CF812328A4001305F00108
:10360000EFA08051930605001306F00193052900F1
:1036100013850400EFE0DFFF232AA4008327C40002
:1036200003270401B387E7003305F5002322A40034
:10363000130500008320C10103248101832441017B
:10364000032901018329C100032A8100130101021A
:1036500067800000130101FD23261102232481024B
:103660002322910223202103232E3101232C410107
:10367000232A51012328610123267101232481017A
:1036800013090500832985008325C507EF9090570E
:10369000930A05008324490C03AA04129305800CA5
:1036A00013050A00EF309270135415009305401F64
:1036B00013850A00EF30D27A9305050037A5D500AF
:1036C000130505F8EF30D2793305A4009305803E49
:1036D0001305753EEF30D27883C7240BB307F5008E
:1036E00093F7F70F638A0716138407001307F00197
:1036F0006374F7001304F0011374F40F1305F0035F
:10370000EFA0804113070400930605001306F003A1
:103710009305200213850900EFF04FC493040500C0
:1037200013044A069305803E13850A00EF30527356
:10373000130B05009305050013050400EF30126715
:10374000B7450F009387F523938505243305F500CE
:10375000EF301271130515001375F50F6302051094
:10376000130405009307F00163F4A7001304F001AC
:103770001374F40F1305F001EFA0003A13070400CF
:10378000930605001306F0019305E00F1385090069
:10379000EFF0CFBCB3E4A400130A8A0C9305007DBC
:1037A00013850A00EF30D26B9305050013050A005C
:1037B000EF30D25FB7450F009387F523938505243B
:1037C0003305F500EF30D269130575001375F50F59
:1037D000630C0508130A05009307F00163F4A700C2
:1037E000130AF001137AFA0F1305F001EFA0C032AB
:1037F00013070A00930605001306F0019305101144
:1038000013850900EFF08FB5B3E4A400032C490C35
:1038100083258C0C13050B00EF305259930B0500D8
:103820009305007D13050A00EF3052583385AB40F5
:103830009305007D130585C1EF309262630A05028E
:1038400013040500B70702006366F502370402009F
:103850001304F4FF6F000002130400006FF01FEA6E
:10386000130400006FF01FF1130A00006FF0DFF780
:10387000130400000347C919930710006306F700FB
:103880000347D9196318F70C032A0C0D1305F00030
:10389000EFA08028930A050013554A00EFA00014FA
:1038A0001307050093860A001306F0009305C01560
:1038B00013850900EFF08FAA13050002EFA0C025C1
:1038C000370A0100333744011347170093060500F8
:1038D000130600029305801213850900EFF00FA86C
:1038E000B3E4A40063644401135414001376F40F8A
:1038F0009305401213850900EFF04F9EB3E4A40036
:10390000135684009305501213850900EFF00F9DA4
:1039100033E4A4008327490C83A5470D13050B004E
:10392000EF30D248B7450F0093850524B7A70700AD
:10393000938707123305F500EF30925263000508B4
:10394000930405009307F00163FCA7069304F001BC
:103950006F0000078325090813050900EF90902ADE
:1039600013551500B30A55018325090813050900ED
:10397000EF9050299305050013850A00EF30524E51
:10398000930A05008327490C03DA870A930505008B
:1039900013151400EF30D24C93050A00EF30524C4F
:1039A00093071000E3E4A7EE93850A0013050400D3
:1039B000EF30124B130A05006FF05FED9304000027
:1039C0001305F001EFA040151387040093060500CE
:1039D0001306F0019305701113850900EFF00F989D
:1039E0003365A4008320C1020324810283244102A1
:1039F000032901028329C101032A8101832A41018C
:103A0000032B0101832BC100032C8100130101034F
:103A100067800000130101FB232611042324810485
:103A20002322910423202105232E3103232C41033B
:103A3000232A5103232861032326710323248103AE
:103A4000938A0500832985002326010083C745004A
:103A5000638C07026314062883AB850003ABC500A3
:103A600003A4050103A70A00930710006306F708E3
:103A70009307700063F0770B9307707F63E0770B19
:103A800093DB3B006F00800783250508EF909017BC
:103A90009305803E1305451FEF30923C130405004B
:103AA0009305050003A58A00EF3052309305803E50
:103AB0001305451FEF30D23A930B05009305040020
:103AC00003A5CA00EF30922E9305803E1305451FD3
:103AD000EF301239130B05009305040003A50A010A
:103AE000EF30D22C9305803E1305451FEF3052373F
:103AF000130405006FF01FF7930B000093073000CD
:103B000063F267039307B03F63E66703135B2B0021
:103B10006F008001930B00006FF05FFE930BF00FBE
:103B20006FF0DFFD130B000013090000130A000003
:103B30006F000003130BF00F6FF01FFF93060102DD
:103B4000B38626012386F6FE330AEA003304E440F6
:103B5000130919009307300063C8270963528002D4
:103B60009307E000E35880FEE3C607FE130710004A
:103B70003317F700E354E4FC9387F7FF6FF09FFEE1
:103B800093040000130C00006F0080019397240041
:103B900013070102B307F70023A807FE938414005C
:103BA0009307300063C89704E3D224FF9307010210
:103BB000B387970083C7C7FE1305F00F3315F500D1
:103BC00093571A0093050A003305F500EF30522988
:103BD0009397240013070102B307F70023A8A7FE59
:103BE000330CAC006FF09FFB93040000130C00003B
:103BF0006FF01FFB130C1CF09307F9FF939727003E
:103C000013070102B307F70003A707FF330C87412F
:103C100023A887FF8347D100939747000346C1003D
:103C200033E6C7009305001513850900EFE01FEB8D
:103C30008347F100939747000346E10033E6C7004E
:103C40009305101513850900EFE05FE903260101D4
:103C50009305201513850900EFE05FE80326410175
:103C60009305301513850900EFE05FE70326810116
:103C70009305401513850900EFE05FE60326C101B7
:103C80009305501513850900EFE05FE513860B00DF
:103C90009305601513850900EFE05FE413060B0040
:103CA0009305701513850900EFE05FE383A70A0011
:103CB000139627001376C60113074000638AE704B2
:103CC00063160400930710006308F9049305801538
:103CD00013850900EFE09FE063440504130500002D
:103CE0008320C104032481048324410403290104A3
:103CF0008329C103032A8103832A4103032B010380
:103D0000832BC102032C810213010105678000008F
:103D1000136606026FF0DFFA136616006FF01FFBE2
:103D2000379502801305C552EFA000501305A0007F
:103D3000EFA000556FF09FFA130101FE232E110032
:103D4000232C8100232A91002328210123263101DD
:103D500013890500930906008324850003A4450008
:103D60009305803E13050600EF30920F9305050082
:103D700013050400EF30920337040010330485006C
:103D80001354D401030609009305B0001385040001
:103D9000EFE0DFD4130600009305C0001385040094
:103DA000EFE0DFD3131414008347C90063940708BE
:103DB000130600003366C4009305D0001385040089
:103DC000EFE0DFD103258900EF90504113767500B5
:103DD0009305F00013850400EFE05FD0832509010F
:103DE00013850900EF30D207130605009305C001C3
:103DF00013850400EFE09FCE03254901EF90103EAC
:103E0000131615001376E6009305D0011385040000
:103E1000EFE0DFCC130500008320C1010324810102
:103E200083244101032901018329C10013010102F7
:103E300067800000130610006FF0DFF7130101FF29
:103E40002326110023248100232291002320210115
:103E500013040500EFF01F80930405008325440C34
:103E6000130610009385C50F13050400EFF09FBAE9
:103E7000B3E4A4000329440C8325C40613050400FD
:103E8000EF904058130605009305891213050400AE
:103E9000EFF09FEA33E5A4008320C10003248100F2
:103EA0008324410003290100130101016780000000
:103EB000130101FE232E1100232C8100232A9100DF
:103EC0002328210123263101232441011309050060
:103ED000130A070093890700639E050693040000F8
:103EE000131646001376060793F6F6003366D600DF
:103EF0009385C42513050900EFE05FBE1304050098
:103F000013060A009385D42513050900EFE01FBDB1
:103F10003364A4009384F4251306300093850400D1
:103F200013050900EFE09FBB3364A4006398090206
:103F3000130504008320C10103248101832441016E
:103F4000032901018329C100032A81001301010211
:103F500067800000930400046FF09FF813060000D0
:103F60009385040013050900EFE05FB73364A400F4
:103F70006FF01FFC130101FE232E1100232C810082
:103F8000232A9100232821012326310123244101E2
:103F900023225101232061011304050093840500AD
:103FA000930906006384050A130A1000130900042C
:103FB000B307940083C7171B638C060A639A070A2A
:103FC000832A8400130BB925638804088327440CD3
:103FD0009305A00F03A5C708EF30826813060500FC
:103FE00093050B0013850A00EFE05FAF13965900AD
:103FF0001376F60F136616009305A9250325840092
:10400000EFE0DFAD130600009305F92503258400DA
:10401000EFE0DFAC0329840013050A00EF90D02FF6
:10402000130710009306050013060A0093055001BC
:1040300013050900EFE09FB213060000938504000A
:1040400013050400EFE01FDD6F000003130A2000DA
:10405000130900006FF0DFF58327440C9305A00FD0
:1040600003A58708EF30C25F130605006FF05FF706
:104070006394060063980702130500008320C101C2
:104080000324810183244101032901018329C10003
:10409000032A8100832A4100032B0100130101023E
:1040A00067800000130600009305A92503258400FE
:1040B000EFE0DFA2832A8400930969231305000837
:1040C000EF909025130710009306050013060008D3
:1040D0009385090013850A00EFE05FA8832A840016
:1040E0001309892313051000EF9010231307100004
:1040F00093060500130610009305090013850A00B6
:10410000EFE0DFA5832A840013050008EF90D0209C
:1041100013070000930605001306000893850900A5
:1041200013850A00EFE09FA3832984001305100084
:10413000EF90901E13070000930605001306100071
:104140009305090013850900EFE05FA11306100035
:104150009385040013050400EFE0DFCB03298400FE
:1041600013050A00EF90501B13070000930605008B
:1041700013060A009305500113050900EFE01F9E86
:1041800033049400A308041A6FF01FEF130101FF1A
:10419000232611002324810023229100130405000B
:1041A0006382050493040004131646001376060781
:1041B00093F6F6003366D6009385C42513050400F4
:1041C000EFE0DF919385E42513050400EFE00FD7BE
:1041D0008320C100032481008324410013010101D5
:1041E00067800000930400006FF01FFC130101FEC4
:1041F000232E1100232C8100232A91002328210142
:10420000232631012324410123225101130A0500F1
:104210001389050093040600832985001394650023
:104220001374F40F13050400EF90100F13B714006C
:104230009306050013060400930530021385090058
:10424000EFE0DF919307101363D497029307F075A3
:1042500063D297029305803E1385F491EF300235C7
:104260009305C072EF30423F930AC0006F00000216
:10427000930420139305803E1385E4ECEF30023362
:104280009305C057EF30423D930A0000630C0500D0
:10429000130405009307F03F63F8A7001304F03FF1
:1042A0006F0080001304000093071000630AF900F8
:1042B00093072000630EF9041305A0FE6F000003AE
:1042C000135624009305800113850900EFE01F8138
:1042D00013763400336656019305A0011385090057
:1042E000EFE0CFFF23119A1A130500008320C101CC
:1042F0000324810183244101032901018329C10091
:10430000032A8100832A4100130101026780000013
:10431000135624009305900113850900EFE00FFC6C
:1043200013763400336656019305B00113850900F6
:10433000EFE0CFFA23129A1A130500006FF01FFB6B
:10434000130101FF23261100232481002322910061
:10435000232021011304050093840500032985000F
:1043600003D6050093051000EFF05FE803D62400A4
:104370009305200013050400EFF05FE703C49400E9
:104380001314140083C764003364F400131444004E
:104390001374040383C784009397170003C7540062
:1043A000B3E7E7009397270093F7C7003364F4005F
:1043B00083C7A4001397170083877400B3E7E7004F
:1043C00093F737003364F4001344F40F1305F0033C
:1043D000EF90807413070400930605001306F003A2
:1043E0009305300213050900EFE04FF713050008AD
:1043F000EF90807203C7440093060500130600087F
:104400009305600213050900EFE04FF503C6B40001
:104410009305000313050900EFE04FEC03C6C40049
:104420009305100313050900EFE04FEB03C6D4001A
:104430009305200313050900EFE04FEA03C6E400EB
:104440009305300313050900EFE04FE91305000061
:104450008320C1000324810083244100032901003B
:104460001301010167800000130101FF23261100E1
:1044700023248100232291009384050003248500D6
:1044800003C605009305500313050400EFE00FE594
:1044900003C614009305600313050400EFE00FE466
:1044A0008320C10003248100832441001301010102
:1044B00067800000130101FF2326110023248100DF
:1044C00023229100138405008324850083C74500BF
:1044D00003C7650013171700B3E7E70003C685009D
:1044E00013162600B3E7C70003C6A500131636004F
:1044F000B3E7C7009397470093F7F70F03C655003C
:1045000003C77500131717003366E60003C795004D
:10451000131727003366E60003C7B50013173700EB
:104520003366E6001376F60033E6C7009305000213
:1045300013850400EFE08FDA03460400834714007C
:10454000939717003366F60083472400939727005C
:104550003366F60083473400939737003366F600DE
:104560001376F6009305700213850400EFE00FD771
:104570000346C4009305800213850400EFE00FD6C4
:104580000346D4009305C00213850400EFE00FD565
:104590000346E4009305900213850400EFE00FD476
:1045A0000346F4009305D00213850400EFE00FD317
:1045B000034604019305A00213850400EFE00FD227
:1045C000034614019305E00213850400EFE00FD1C8
:1045D000034624019305B00213850400EFE00FD0D9
:1045E000034634019305F00213850400EFE00FCF7A
:1045F000130500008320C1000324810083244100AF
:104600001301010167800000130101FF232611003F
:10461000232481001304050013850500B7450F000E
:1046200093850524EF30C2031306F5FF1376F607D2
:104630009305A00303258400EFE04FCA8320C10047
:10464000032481001301010167800000130101FFB1
:1046500023261100232481002322910023202101FD
:104660001304050093840500032985001305000247
:10467000EF90804A03C784009306050013060002EA
:104680009305600213050900EFE04FCD0329840074
:1046900013050004EF90404803C7940093060500FB
:1046A000130600049305600213050900EFE00FCB29
:1046B0009305401F03D50400EF20927A1376F5038B
:1046C0009305C01203258400EFE04FC19305401FFE
:1046D00003D52400EF20D2781376F5039305D0128A
:1046E00003258400EFE08FBF8320C10003248100F5
:1046F00083244100032901001301010167800000A8
:10470000130101FE232E1100232C8100232A910086
:104710002328210123263101130405009389050074
:104720006302061493040004130670019385B424F5
:1047300003258400EFE08FBA130600009385D4248C
:1047400003258400EFE08FB913060000938514263B
:1047500003258400EFE08FB81306B000938584240E
:1047600003258400EFE08FB71306200093856424AF
:1047700003258400EFE08FB6130600089385B42369
:1047800003258400EFE08FB51389D42313060000BE
:104790009305090003258400EFE04FB48327440C00
:1047A00083C717006394070CB7676202938707A05B
:1047B00063F2370D13066008938594240325840063
:1047C000EFE0CFB18327440C83C71700639407023F
:1047D0008329840013058000EF9000341307000044
:1047E0009306050013068000930520011385090038
:1047F000EFE0CFB613064000930550010325840077
:10480000EFE0CFAD1306500093054001032584006F
:10481000EFE0CFAC130610009305300103258400B0
:10482000EFE0CFAB13064000930509000325840099
:10483000EFE0CFAA930610001306000893854424E6
:1048400013050400EFD05FE28320C101032481013E
:1048500083244101032901018329C10013010102BD
:1048600067800000930400006FF01FEC1306E0085F
:104870006FF09FF4130620086FF01FF4130101FE80
:10488000232E1100232C8100232A910023282101AB
:104890002326310113040500130620009305F013AD
:1048A00003258500EFE08FA39309000113090000A1
:1048B0009307F00063D22707130620009305F01337
:1048C00003258400EFE08FA1130600009305C013B9
:1048D00003258400EFE08FA0130600009305C013AA
:1048E00003258400EFE08F9F130600009305F0136B
:1048F00003258400EFE08F9E130500008320C10193
:104900000324810183244101032901018329C1007A
:1049100013010102678000009389F9FF13860900E3
:104920009305801303258400EFE04F9B13060000DE
:104930009305A01303258400EFE04F9AB78402800B
:10494000938444C5B384240103C6C4039305901320
:1049500003258400EFE08F9803C6C4049305B013C9
:1049600003258400EFE08F97130660009305F01392
:1049700003258400EFE08F96130600009305C01313
:1049800003258400EFE08F95130600009305C01304
:1049900003258400EFE08F94130919006FF05FF195
:1049A000130101FE232E1100232C8100232A9100E4
:1049B00023282101232631012324410193090500E5
:1049C000138405008324850083A605009307300027
:1049D000E384F61C03A74500E304F71C1307000E4D
:1049E00013F63600832744009397270093F7C700F8
:1049F0003366F600238ED91883274400A38EF91856
:104A00003366E6009305A00F13850400EFE00F8DD9
:104A100013051000EF904010034754019306050062
:104A2000130610009305B00F13850400EFE00F93F9
:104A300013052000EF90400E034764019306050024
:104A4000130620009305B00F13850400EFE00F91CB
:104A500013054000EF90400C034734019306050016
:104A6000130640009305B00F13850400EFE00F8F8D
:104A70000347840093071000E3F8E7129307070049
:104A80009306800063F4E6009307800093F7F70F26
:104A90002304F4009387F7FF93F7770003A7490CEB
:104AA000034737006308070203274401B7060001E4
:104AB000938606F03377D700630E0700034794010F
:104AC000930610006308D70093062000E312D70E68
:104AD00093E707010347740193061000E3FEE60C19
:104AE000130607009306800063F4E60013068000B7
:104AF0001376F60FA30BC4001306F6FF1316560029
:104B00001376F60F3366F6009305C00F1385040085
:104B1000EFD0DFFC83A7490C83C73700E382070A85
:104B200013098002130609009305D00F13850400B2
:104B3000EFD0DFFA130609009305901013850400E7
:104B4000EFD0DFF9130609009305C01013850400A8
:104B5000EFD0DFF88347840113071000E376F706F0
:104B600013860700130780006374F70013068000A4
:104B70001376F60F230CC400131656001376060E98
:104B80009305E00F13850400EFD05FF583473401F0
:104B900063840702034644011376F6018347B40297
:104BA0009397570093F7F70F3366F60093050010BD
:104BB00013850400EFD09FF28347A40003469400BE
:104BC000E3E8C7009305401013850400EFD01FF100
:104BD0000346A4009305501013850400EFD01FF086
:104BE0000356C400135646001306F6FFE3040600FE
:104BF0009307F00363F4C7001306F00393058010D6
:104C000013850400EFD09FED0359E40013594900C8
:104C10001309F9FF6304097E9307F00363F4270186
:104C20001309F0031305F003EF80106F1307090059
:104C3000930605001306F003930570101385040016
:104C4000EFD0DFF183A7490C83C73700638A0702DF
:104C5000130680059305A01013850400EFD01FE80C
:104C6000130680019305D01013850400EFD01FE7D1
:104C7000130670029305A01113850400EFD01FE600
:104C8000130600009305B01013850400EFD01FE554
:104C9000130600009305E01013850400EFD01FE415
:104CA00083472401638007761386070013070004F7
:104CB0006374F700130600041376F60F131616003C
:104CC0009305401113850400EFD05FE11306000047
:104CD0009305100813850400EFD05FE0130500046E
:104CE000EF8090631307100093060500130600047D
:104CF0009305C01513850400EFD05FE6130500028D
:104D0000EF80906113071000930605001306000260
:104D10009305C01513850400EFD05FE4032704005A
:104D2000930710006306F700032744006310F76E33
:104D30000325840313554500EF80504A13090500ED
:104D40001305F000EF80505D13070900930605007E
:104D50001306F0009305C01513850400EFD01FE083
:104D60008347D401638E076A138907001307F0078E
:104D70006374F7001309F0071379F90F1305F007AF
:104D8000EF80905913070900930605001306F007FA
:104D90009305101013850400EFD05FDC8347F40106
:104DA00063840768138A07001307F0076374F7002A
:104DB000130AF007137AFA0F83476402638A0766BF
:104DC000130600083366CA00930500121385040019
:104DD000EFD0DFD00346B4013309C94013194900AD
:104DE0001379F90F03461402330646411376F60091
:104DF0003366C9009305901213850400EFD01FCECF
:104E00008347C4019397470093F7F70F03462402A3
:104E10001376F60033E6C7009305A012138504004D
:104E2000EFD0DFCB8347440363880760130680001D
:104E30008347540363860760930700083366F600D0
:104E40008347E4019397470093F707073366F6001B
:104E50008347040293F777003366F6009305301218
:104E600013850400EFD09FC7834744029397470000
:104E700093F7F70F034634021376F60033E6C700C4
:104E80009305201213850400EFD05FC51305F000D1
:104E9000EF809048034754021377F700930605000C
:104EA0001306F0009305601013850400EFD01FCBAC
:104EB000834774029397470093F7F70F03468402E2
:104EC0001376F60033E6C70093051012138504002D
:104ED000EFD0DFC01305C001EF80104403479402F8
:104EE000930605001306C0019305301013850400D6
:104EF000EFD0DFC68347A40293F7F7000347C4024D
:104F0000630407541306000133E6C70093058012BB
:104F100013850400EFD09FBC13051000EF80D03F35
:104F200003470404930605001306100093050011BF
:104F300013850400EFD09FC2034614049305B011FB
:104F400013850400EFD09FB9034924041309F9FF26
:104F5000630009509307700063F427011309700080
:104F60001305000EEF80503B130709009306050060
:104F70001306000E9305701113850400EFD01FBEB9
:104F800013050004EF8050390347440493060500DD
:104F9000130600049305101113850400EFD01FBC05
:104FA00003495404630A094A9307F00363F4270191
:104FB0001309F0031305F003EF80103613070900FF
:104FC000930605001306F003930580111385040072
:104FD000EFD0DFB803496404630409489307300045
:104FE00063F42701130930001305000CEF80D03261
:104FF00013070900930605001306000C9305201102
:1050000013850400EFD09FB503497404630E09446F
:105010009307300063F42701130930001305000CD7
:10502000EF80902F13070900930605001306000C6C
:105030009305301113850400EFD05FB20349840457
:10504000630809429307700063F427011309700095
:105050001305000EEF80502C13070900930605007E
:105060001306000E9305601113850400EFD01FAFE7
:1050700013050008EF80502A0347940493060500A7
:10508000130600089305001113850400EFD01FAD2F
:105090000329C40413050001EF8010281307F9FF4A
:1050A000133717009306050013060001930500113E
:1050B00013850400EFD09FAA13054000EF80D02590
:1050C0001307E9FF13371700930605001306400086
:1050D0009305001113850400EFD05FA813050008A5
:1050E000EF8090230347040593060500130600088C
:1050F0009305101113850400EFD05FA60349140532
:10510000630C09369307F00063F427011309F000DC
:105110001305F000EF8050201307090093060500E7
:105120001306F0009305601113850400EFD01FA350
:105130008347240563860734834744056386073421
:105140008347840563860734834794056386073461
:105150008347A40563860734130910001305000470
:10516000EF80901B13070900930605001306000447
:105170009305B00F13850400EFD05F9E034924050B
:105180001349190013050008EF80101913070900CF
:1051900093060500130600089305501113850400BB
:1051A000EFD0DF9B03493405630009309307F00318
:1051B00063F427011309F0031305F003EF80D01502
:1051C00013070900930605001306F0039305301139
:1051D00013850400EFD09F9803496405630A092CE6
:1051E0009307F00363F427011309F0031305F00399
:1051F000EF80901213070900930605001306F003D1
:105200009305201113850400EFD05F9503495405E1
:1052100013050004EF8050101307090093060500E2
:10522000130600049305001113850400EFD01F93AB
:10523000034944051349190013058000EF80D00D80
:10524000130709009306050013068000930500115B
:1052500013850400EFD09F9003497405630E092461
:105260009307F00363F427011309F0031305F00318
:10527000EF80900A13070900930605001306F00358
:105280009305901113850400EFD05F8D834784054B
:105290006388072283479405639807221309100047
:1052A00013052000EF80500713070900930605003F
:1052B000130620009305001113850400EFD01F8A08
:1052C000034984051349190013050008EF80D00431
:1052D0001307090093060500130600089305401103
:1052E00013850400EFD09F878347A405638A0732A4
:1052F0008327C40513071000638EE722638A071C07
:1053000013072000638AE726130730006388E72C21
:105310000345040613554500EF80406C63040534D3
:10532000130405009307F00063F4A7001304F000D2
:105330001305000EEF80407E13070400930605005E
:105340001306000E9305A01013850400EFD01F81F3
:1053500013050008EF80407C1357340093060500C6
:10536000130600089305901013850400EFD00FFF7B
:1053700013850900EFE00FAE8320C10103248101F2
:1053800083244101032901018329C100032A8100EB
:1053900013010102678000001307000F6FF04FE454
:1053A0001307000F6FF0CFE3930710006FF04FEE7D
:1053B00093E787006FF00FF2130610006FF08FF382
:1053C0001309C0046FF00FF6130610006FF08FFA88
:1053D000138607009305401013850400EFD00FF0EB
:1053E000034694009305501013850400EFD00FEF8F
:1053F0006FF00FFF130600006FF05F8013090000CD
:105400006FF05F82130600006FF09F8B035504015D
:1054100013554500EF80805C130905006FF05F9223
:10542000130900006FF09F95130A00006FF0DF98DA
:10543000130600006FF01F99130600006FF05F9FC6
:10544000930700006FF09F9F130600006FF0DFAB23
:10545000130900006FF0DFB0130900006FF09FB573
:10546000130900006FF05FB8130900006FF01FBB55
:10547000130900006FF0DFBD130900006FF05FC972
:10548000130910006FF09FCD130910006FF01FCDAE
:10549000130910006FF09FCC130910006FF01FCCA0
:1054A000130900006FF09FCB130900006FF0DFD0ED
:1054B000130900006FF09FD3130900006FF01FDB8A
:1054C000130910006FF0DFDD130900006FF05FDDDE
:1054D00013050002EF8040641307100093060500D7
:1054E000130600029305101113850400EFD00FE797
:1054F00013050002EF8040621307000093060500C9
:10550000130600029305001113850400EFD00FE588
:1055100013050004EF8040601307000093060500A8
:10552000130600049305001113850400EFD00FE368
:105530006FF01FDE13050002EF80005E130700000E
:10554000930605001306000293051011138504004D
:10555000EFD0CFE013050002EF80005C13071000CE
:10556000930605001306000293050011138504003D
:10557000EFD0CFDE6FF0DFD913050002EF80C05906
:10558000130710009306050013060002930510117F
:1055900013850400EFD08FDC13050002EF80C057A5
:1055A000130700009306050013060002930500117F
:1055B00013850400EFD08FDA13050004EF80C05587
:1055C000130710009306050013060004930500114D
:1055D00013850400EFD08FD86FF09FD3130500021E
:1055E000EF808053130700009306050013060002A6
:1055F0009305001113850400EFD04FD61305000268
:10560000EF80805113070000930605001306000287
:105610009305101113850400EFD04FD46FF05FCFC6
:1056200013050002EF80404F1307000093060500AA
:10563000130600029305001113850400EFD00FD26A
:1056400013050002EF80404D13070000930605008C
:10565000130600029305101113850400EFD00FD03C
:105660006FF01FCB130400006FF09FCC130101FDFE
:1056700023261102232481022322910223202103C5
:10568000232E310113040500938405009305B01EF9
:1056900003258500EFD08F8A930905009305C01E6E
:1056A00003258400EFD08F89130905009305601E40
:1056B00003258400EFD08F88B7170300938707D4A2
:1056C00063FC9700B7373101938707D063FA9700DF
:1056D000938407006F00C000B7140300938404D4C0
:1056E00093F7F90F139727003307F7009317570025
:1056F0009376F90F139726003307D7001319170075
:10570000B38727011389C708B74500009385C5777C
:1057100013757500EF1092699305050013050900D4
:10572000EF10D268130600239306000093050000D3
:10573000EF10126A2324A1002326B100B7653500BB
:105740009385057E1306000013058100EF80C032AB
:10575000B7C72D009387076C63FC9700B797980035
:105760009387076863E69704930900066F0080003B
:105770009309000E032581008327C100639A070067
:10578000639C0702B7170000938787B663F6A702EA
:10579000130505F1B7A700006376F50A9305001419
:1057A000EF10126C1379F50F930400046F00800260
:1057B000930900026FF01FFC93058002130545E872
:1057C000EF10126A9374F50F9384040493F4F40FAA
:1057D00013090000138609009305B01D03258400FA
:1057E000EFD0CFAF138604009305C01D03258400BE
:1057F000EFD0CFAE130609009305D01D032584001A
:10580000EFD0CFAD138604009305E01D032584007F
:10581000EFD0CFAC130609009305F01D03258400DB
:10582000EFD0CFAB130500008320C1020324810217
:1058300083244102032901028329C10113010103C9
:1058400067800000930400041309F0076FF09FF8CD
:10585000130101FD23261102232481022322910238
:1058600023202103232E3101232C4101130A05009B
:10587000B71708009387076563FEB7001389050013
:10588000B7373101938707D063FAB7001389070050
:105890006F00C0003719080013090965B72500001B
:1058A0009385057113050900EF10925BB745000061
:1058B0009385C5D5EF10924F93090500930400001E
:1058C000130410009307300063CC970693850900FA
:1058D00013050400EF10924D9305050013571500B2
:1058E000B767CD1D93870750B307F70033B7E700BD
:1058F0002324F1002326E100130600001305810094
:10590000EF80801783278100938647FFB3B7F600A7
:105910000327C1001307F7FFB387E7002324D10053
:105920002326F100638807001314140093841400E5
:105930006FF05FF9639607009307F003E3E6D7FE85
:10594000032781008327C10063980700639E070037
:105950009307F00363FAE7001307F00393070000CF
:105960002324E1002326F100B7B74400938707A260
:1059700063FC2701B727B700938707B063EA2703C3
:10598000130660056F008000130690059307200042
:10599000630EF40863F28702930740006300F40883
:1059A000930780006310F408930410006F008001D7
:1059B000130670056FF09FFD930710006314F40643
:1059C0009304C0009305000D03258A00EFD00F91CA
:1059D00013040500138604009305100D03258A00A7
:1059E000EFD0CF8F3364A400034681009305200DD0
:1059F00003258A00EFD08F8E3365A4008320C10277
:105A00000324810283244102032901028329C10165
:105A1000032A810113010103678000009304300011
:105A20006FF05FFA930410006FF0DFF99304400009
:105A30006FF05FF9130101F7232611082324810871
:105A40002322910823202109232E3107232C4107EB
:105A5000232A51072328610723267107232481075E
:105A6000232291072320A107232EB105130405004B
:105A700093840500130906009305B01E03258500D5
:105A8000EFC0DFCB930A05009305C01E03258400F9
:105A9000EFC0DFCA930905009305601E032584004B
:105AA000EFC0DFC9137BF50F372600001306067120
:105AB000930600001385040093050000EF10523197
:105AC0002324A1042326B104B7F501009385A5FB87
:105AD00003254415EF10922D9305050013060000D1
