:0200000480007A
:1000000097110000938101AF138101C11385C18055
:100010009385C1801386018163FCC500832205009E
:1000200023A055001305450093854500E3E8C5FE70
:1000300013850181938501816378B5002320050034
:1000400013054500E36CB5FEEF00C022EF00C014BD
:080050006F0000006780000052
:1000580003254500131505011355050167800000A8
:10006800130101FF2326110023248100232291007C
:10007800130405009384050013050400EFF05FFDE9
:10008800E30C05FE93E40410232094008320C100B0
:1000980003248100832441001301010167800000CB
:1000A800130101FF2326110023248100232291003C
:1000B800130405009384050013050400EFF05FF9AD
:1000C800E30C05FEB717000093870788B3E4F40034
:1000D800232094008320C10003248100832441004D
:1000E8001301010167800000130101FF232611009D
:1000F8002324810023229100130405009384050022
:1001080013050400EFF0DFF4E30C05FEB717000059
:1001180093870780B3E4F400232094008320C10070
:10012800032481008324410013010101678000003A
:1001380083A7050003A7450013171700B3E7E700D7
:1001480003A7850013174700B3E7E7002324F5004A
:1001580083A7C5002320F50283A705012322F50202
:1001680083A745012324F50283A785012326F502E9
:1001780067800000130700006F0080001307170056
:10018800B7574C009387F7B3E3FAE7FE67800000A0
:10019800130101FD23261102232481029307100075
:1001A8002322F1002324F100232601001307A000D5
:1001B8002328E10013072000232AE100232CE10073
:1001C800232EE100370705102324F7002322F70028
:1001D8009305410037050710EFF09FF593050000E0
:1001E80037050710EFF0DFEB9305500537050710CB
:1001F800EFF01FE79305000037050710EFF0DFEE7B
:100208009305000037050710EFF09FE99305A00A52
:1002180037050710EFF0DFE49305000037050710F6
:10022800EFF09FEC1304A00A370705108327470057
:1002380093C7F7002322F700EFF0DFF31344F4FF2E
:100248001374F40F9305000037050710EFF05FE50E
:100258009305040037050710EFF09FE093050000B1
:1002680037050710EFF05FE86FF01FFC130101FF7F
:1002780023248100232291001384C1809384C180A8
:10028800B3848440232021012326110093D42440E1
:1002980013090000631C99021384C1809384C180F0
:1002A800B3848440EFF09FDA93D42440130900000C
:1002B800631899028320C10003248100832441002C
:1002C800032901001301010167800000832704004E
:1002D8001309190013044400E78007006FF09FFB1F
:1002E800832704001309190013044400E78007005A
:0402F8006FF01FFC88
:0402FC0000000000FE
:040000058000000077
:00000001FF
